{
  "contractName": "ForeignAMB",
  "abi": [
    {
      "constant": true,
      "inputs": [],
      "name": "transactionHash",
      "outputs": [
        {
          "name": "",
          "type": "bytes32"
        }
      ],
      "payable": false,
      "stateMutability": "view",
      "type": "function"
    },
    {
      "constant": true,
      "inputs": [],
      "name": "sourceChainId",
      "outputs": [
        {
          "name": "",
          "type": "uint256"
        }
      ],
      "payable": false,
      "stateMutability": "view",
      "type": "function"
    },
    {
      "constant": false,
      "inputs": [
        {
          "name": "_contract",
          "type": "address"
        },
        {
          "name": "_data",
          "type": "bytes"
        },
        {
          "name": "_gas",
          "type": "uint256"
        },
        {
          "name": "_dataType",
          "type": "uint256"
        }
      ],
      "name": "_sendMessage",
      "outputs": [
        {
          "name": "",
          "type": "bytes32"
        }
      ],
      "payable": false,
      "stateMutability": "nonpayable",
      "type": "function"
    },
    {
      "constant": true,
      "inputs": [
        {
          "name": "_txHash",
          "type": "bytes32"
        }
      ],
      "name": "relayedMessages",
      "outputs": [
        {
          "name": "",
          "type": "bool"
        }
      ],
      "payable": false,
      "stateMutability": "view",
      "type": "function"
    },
    {
      "constant": false,
      "inputs": [
        {
          "name": "_sourceChainId",
          "type": "uint256"
        },
        {
          "name": "_destinationChainId",
          "type": "uint256"
        },
        {
          "name": "_validatorContract",
          "type": "address"
        },
        {
          "name": "_maxGasPerTx",
          "type": "uint256"
        },
        {
          "name": "_gasPrice",
          "type": "uint256"
        },
        {
          "name": "_requiredBlockConfirmations",
          "type": "uint256"
        },
        {
          "name": "_owner",
          "type": "address"
        }
      ],
      "name": "initialize",
      "outputs": [
        {
          "name": "",
          "type": "bool"
        }
      ],
      "payable": false,
      "stateMutability": "nonpayable",
      "type": "function"
    },
    {
      "constant": true,
      "inputs": [],
      "name": "isInitialized",
      "outputs": [
        {
          "name": "",
          "type": "bool"
        }
      ],
      "payable": false,
      "stateMutability": "view",
      "type": "function"
    },
    {
      "constant": true,
      "inputs": [],
      "name": "requiredBlockConfirmations",
      "outputs": [
        {
          "name": "",
          "type": "uint256"
        }
      ],
      "payable": false,
      "stateMutability": "view",
      "type": "function"
    },
    {
      "constant": false,
      "inputs": [
        {
          "name": "_data",
          "type": "bytes"
        },
        {
          "name": "_signatures",
          "type": "bytes"
        }
      ],
      "name": "executeSignatures",
      "outputs": [],
      "payable": false,
      "stateMutability": "nonpayable",
      "type": "function"
    },
    {
      "constant": true,
      "inputs": [
        {
          "name": "_data",
          "type": "bytes"
        }
      ],
      "name": "getMinimumGasUsage",
      "outputs": [
        {
          "name": "gas",
          "type": "uint256"
        }
      ],
      "payable": false,
      "stateMutability": "pure",
      "type": "function"
    },
    {
      "constant": true,
      "inputs": [
        {
          "name": "_messageId",
          "type": "bytes32"
        }
      ],
      "name": "failedMessageReceiver",
      "outputs": [
        {
          "name": "",
          "type": "address"
        }
      ],
      "payable": false,
      "stateMutability": "view",
      "type": "function"
    },
    {
      "constant": true,
      "inputs": [],
      "name": "getBridgeMode",
      "outputs": [
        {
          "name": "_data",
          "type": "bytes4"
        }
      ],
      "payable": false,
      "stateMutability": "pure",
      "type": "function"
    },
    {
      "constant": false,
      "inputs": [
        {
          "name": "_sourceChainId",
          "type": "uint256"
        },
        {
          "name": "_destinationChainId",
          "type": "uint256"
        }
      ],
      "name": "setChainIds",
      "outputs": [],
      "payable": false,
      "stateMutability": "nonpayable",
      "type": "function"
    },
    {
      "constant": true,
      "inputs": [
        {
          "name": "_messageId",
          "type": "bytes32"
        }
      ],
      "name": "failedMessageSender",
      "outputs": [
        {
          "name": "",
          "type": "address"
        }
      ],
      "payable": false,
      "stateMutability": "view",
      "type": "function"
    },
    {
      "constant": true,
      "inputs": [],
      "name": "allowReentrantRequests",
      "outputs": [
        {
          "name": "",
          "type": "bool"
        }
      ],
      "payable": false,
      "stateMutability": "view",
      "type": "function"
    },
    {
      "constant": true,
      "inputs": [],
      "name": "messageId",
      "outputs": [
        {
          "name": "id",
          "type": "bytes32"
        }
      ],
      "payable": false,
      "stateMutability": "view",
      "type": "function"
    },
    {
      "constant": false,
      "inputs": [
        {
          "name": "_maxGasPerTx",
          "type": "uint256"
        }
      ],
      "name": "setMaxGasPerTx",
      "outputs": [],
      "payable": false,
      "stateMutability": "nonpayable",
      "type": "function"
    },
    {
      "constant": true,
      "inputs": [],
      "name": "requiredSignatures",
      "outputs": [
        {
          "name": "",
          "type": "uint256"
        }
      ],
      "payable": false,
      "stateMutability": "view",
      "type": "function"
    },
    {
      "constant": true,
      "inputs": [],
      "name": "owner",
      "outputs": [
        {
          "name": "",
          "type": "address"
        }
      ],
      "payable": false,
      "stateMutability": "view",
      "type": "function"
    },
    {
      "constant": true,
      "inputs": [],
      "name": "validatorContract",
      "outputs": [
        {
          "name": "",
          "type": "address"
        }
      ],
      "payable": false,
      "stateMutability": "view",
      "type": "function"
    },
    {
      "constant": true,
      "inputs": [],
      "name": "deployedAtBlock",
      "outputs": [
        {
          "name": "",
          "type": "uint256"
        }
      ],
      "payable": false,
      "stateMutability": "view",
      "type": "function"
    },
    {
      "constant": true,
      "inputs": [],
      "name": "getBridgeInterfacesVersion",
      "outputs": [
        {
          "name": "major",
          "type": "uint64"
        },
        {
          "name": "minor",
          "type": "uint64"
        },
        {
          "name": "patch",
          "type": "uint64"
        }
      ],
      "payable": false,
      "stateMutability": "pure",
      "type": "function"
    },
    {
      "constant": true,
      "inputs": [],
      "name": "messageSourceChainId",
      "outputs": [
        {
          "name": "id",
          "type": "uint256"
        }
      ],
      "payable": false,
      "stateMutability": "view",
      "type": "function"
    },
    {
      "constant": false,
      "inputs": [
        {
          "name": "_blockConfirmations",
          "type": "uint256"
        }
      ],
      "name": "setRequiredBlockConfirmations",
      "outputs": [],
      "payable": false,
      "stateMutability": "nonpayable",
      "type": "function"
    },
    {
      "constant": true,
      "inputs": [],
      "name": "destinationChainId",
      "outputs": [
        {
          "name": "",
          "type": "uint256"
        }
      ],
      "payable": false,
      "stateMutability": "view",
      "type": "function"
    },
    {
      "constant": false,
      "inputs": [
        {
          "name": "_gasPrice",
          "type": "uint256"
        }
      ],
      "name": "setGasPrice",
      "outputs": [],
      "payable": false,
      "stateMutability": "nonpayable",
      "type": "function"
    },
    {
      "constant": false,
      "inputs": [
        {
          "name": "_enable",
          "type": "bool"
        }
      ],
      "name": "setAllowReentrantRequests",
      "outputs": [],
      "payable": false,
      "stateMutability": "nonpayable",
      "type": "function"
    },
    {
      "constant": true,
      "inputs": [
        {
          "name": "_messageId",
          "type": "bytes32"
        }
      ],
      "name": "messageCallStatus",
      "outputs": [
        {
          "name": "",
          "type": "bool"
        }
      ],
      "payable": false,
      "stateMutability": "view",
      "type": "function"
    },
    {
      "constant": true,
      "inputs": [],
      "name": "messageSender",
      "outputs": [
        {
          "name": "sender",
          "type": "address"
        }
      ],
      "payable": false,
      "stateMutability": "view",
      "type": "function"
    },
    {
      "constant": true,
      "inputs": [],
      "name": "decimalShift",
      "outputs": [
        {
          "name": "",
          "type": "int256"
        }
      ],
      "payable": false,
      "stateMutability": "view",
      "type": "function"
    },
    {
      "constant": false,
      "inputs": [
        {
          "name": "_contract",
          "type": "address"
        },
        {
          "name": "_data",
          "type": "bytes"
        },
        {
          "name": "_gas",
          "type": "uint256"
        }
      ],
      "name": "requireToPassMessage",
      "outputs": [
        {
          "name": "",
          "type": "bytes32"
        }
      ],
      "payable": false,
      "stateMutability": "nonpayable",
      "type": "function"
    },
    {
      "constant": true,
      "inputs": [
        {
          "name": "_messageId",
          "type": "bytes32"
        }
      ],
      "name": "failedMessageDataHash",
      "outputs": [
        {
          "name": "",
          "type": "bytes32"
        }
      ],
      "payable": false,
      "stateMutability": "view",
      "type": "function"
    },
    {
      "constant": true,
      "inputs": [],
      "name": "maxGasPerTx",
      "outputs": [
        {
          "name": "",
          "type": "uint256"
        }
      ],
      "payable": false,
      "stateMutability": "view",
      "type": "function"
    },
    {
      "constant": false,
      "inputs": [
        {
          "name": "newOwner",
          "type": "address"
        }
      ],
      "name": "transferOwnership",
      "outputs": [],
      "payable": false,
      "stateMutability": "nonpayable",
      "type": "function"
    },
    {
      "constant": true,
      "inputs": [],
      "name": "gasPrice",
      "outputs": [
        {
          "name": "",
          "type": "uint256"
        }
      ],
      "payable": false,
      "stateMutability": "view",
      "type": "function"
    },
    {
      "anonymous": false,
      "inputs": [
        {
          "indexed": true,
          "name": "messageId",
          "type": "bytes32"
        },
        {
          "indexed": false,
          "name": "encodedData",
          "type": "bytes"
        }
      ],
      "name": "UserRequestForAffirmation",
      "type": "event"
    },
    {
      "anonymous": false,
      "inputs": [
        {
          "indexed": true,
          "name": "sender",
          "type": "address"
        },
        {
          "indexed": true,
          "name": "executor",
          "type": "address"
        },
        {
          "indexed": true,
          "name": "messageId",
          "type": "bytes32"
        },
        {
          "indexed": false,
          "name": "status",
          "type": "bool"
        }
      ],
      "name": "RelayedMessage",
      "type": "event"
    },
    {
      "anonymous": false,
      "inputs": [
        {
          "indexed": false,
          "name": "gasPrice",
          "type": "uint256"
        }
      ],
      "name": "GasPriceChanged",
      "type": "event"
    },
    {
      "anonymous": false,
      "inputs": [
        {
          "indexed": false,
          "name": "requiredBlockConfirmations",
          "type": "uint256"
        }
      ],
      "name": "RequiredBlockConfirmationChanged",
      "type": "event"
    },
    {
      "anonymous": false,
      "inputs": [
        {
          "indexed": false,
          "name": "previousOwner",
          "type": "address"
        },
        {
          "indexed": false,
          "name": "newOwner",
          "type": "address"
        }
      ],
      "name": "OwnershipTransferred",
      "type": "event"
    }
  ],
  "bytecode": "0x608060405234801561001057600080fd5b506129f3806100206000396000f3006080604052600436106101925763ffffffff60e060020a6000350416630ac1c31381146101975780631544298e146101be578063163cef35146101d357806321d800ec1461024357806325fbf4ee1461026f578063392e53cd146102a85780633f0a9f65146102bd5780633f7658fd146102d25780633f768c06146103005780633f9a8e7e14610359578063437764df1461038d578063467ad35a146103d45780634a610b04146103ef5780634d4cb7a214610407578063669f618b1461041c5780637bac29c7146104315780638d068043146104495780638da5cb5b1461045e57806399439089146104735780639a454b99146104885780639cb7595a1461049d5780639e307dff146104de578063acf5c689146104f3578063b07506111461050b578063bf1fe42014610520578063c2231ad214610538578063cb08a10c14610552578063d67bdd251461056a578063dae5f0fd1461057f578063dc8601b314610594578063e37c3289146105fd578063e5789d0314610615578063f2fde38b1461062a578063fe173b971461064b575b600080fd5b3480156101a357600080fd5b506101ac610660565b60408051918252519081900360200190f35b3480156101ca57600080fd5b506101ac61066f565b3480156101df57600080fd5b5060408051602060046024803582810135601f81018590048502860185019096528585526101ac958335600160a060020a03169536956044949193909101919081908401838280828437509497505084359550505060209092013591506106bd9050565b34801561024f57600080fd5b5061025b600435610800565b604080519115158252519081900360200190f35b34801561027b57600080fd5b5061025b600435602435600160a060020a03604435811690606435906084359060a4359060c435166108c9565b3480156102b457600080fd5b5061025b610b3d565b3480156102c957600080fd5b506101ac610b8e565b3480156102de57600080fd5b506102fe6024600480358281019290820135918135918201910135610bdc565b005b34801561030c57600080fd5b506040805160206004803580820135601f81018490048402850184019095528484526101ac943694929360249392840191908190840183828082843750949750610d239650505050505050565b34801561036557600080fd5b50610371600435610d3f565b60408051600160a060020a039092168252519081900360200190f35b34801561039957600080fd5b506103a2610e0e565b604080517bffffffffffffffffffffffffffffffffffffffffffffffffffffffff199092168252519081900360200190f35b3480156103e057600080fd5b506102fe600435602435610e32565b3480156103fb57600080fd5b50610371600435610e5c565b34801561041357600080fd5b5061025b610ee0565b34801561042857600080fd5b506101ac610f31565b34801561043d57600080fd5b506102fe600435610f56565b34801561045557600080fd5b506101ac610fbf565b34801561046a57600080fd5b50610371611037565b34801561047f57600080fd5b5061037161108e565b34801561049457600080fd5b506101ac6110e5565b3480156104a957600080fd5b506104b2611133565b6040805167ffffffffffffffff9485168152928416602084015292168183015290519081900360600190f35b3480156104ea57600080fd5b506101ac61113e565b3480156104ff57600080fd5b506102fe600435611163565b34801561051757600080fd5b506101ac61118b565b34801561052c57600080fd5b506102fe6004356111d9565b34801561054457600080fd5b506102fe60043515156111fe565b34801561055e57600080fd5b5061025b600435611275565b34801561057657600080fd5b506103716112f9565b34801561058b57600080fd5b506101ac61131e565b3480156105a057600080fd5b5060408051602060046024803582810135601f81018590048502860185019096528585526101ac958335600160a060020a0316953695604494919390910191908190840183828082843750949750509335945061136c9350505050565b34801561060957600080fd5b506101ac600435611383565b34801561062157600080fd5b506101ac611448565b34801561063657600080fd5b506102fe600160a060020a0360043516611496565b34801561065757600080fd5b506101ac6114bb565b600061066a610f31565b905090565b7f67d6f42a1ed69c62022f2d160ddc6f2f0acd37ad1db0c24f4702d7d3343a4add60009081526020527ff6c66672b1a9fe5622677597b0da8fd180a2c85696efbcf7fe4b1e0f4f0f61085490565b600080606080826106cc610f31565b14806106db57506106db610ee0565b15156106e657600080fd5b6106ef87610d23565b86101580156107055750610701611448565b8611155b151561071057600080fd5b61071b888787611509565b91506107306107286116a5565b6001016116f3565b6020820151925081876040516020018083805190602001908083835b6020831061076b5780518252601f19909201916020918201910161074c565b51815160209384036101000a600019018019909216911617905285519190930192850191508083835b602083106107b35780518252601f199092019160209182019101610794565b6001836020036101000a0380198251168184511680821785525050505050509050019250505060405160208183030381529060405290506107f4838261174a565b50909695505050505050565b6000600460008360405160200180807f72656c617965644d657373616765730000000000000000000000000000000000815250600f0182600019166000191681526020019150506040516020818303038152906040526040518082805190602001908083835b602083106108855780518252601f199092019160209182019101610866565b51815160209384036101000a600019018019909216911617905260408051929094018290039091208652850195909552929092016000205460ff1695945050505050565b60408051600481526024810182526020810180517bffffffffffffffffffffffffffffffffffffffffffffffffffffffff167f6fde8202000000000000000000000000000000000000000000000000000000001781529151815160009330939291829190808383895b8381101561094a578181015183820152602001610932565b50505050905090810190601f1680156109775780820380516001836020036101000a031916815260200191505b509150506000604051808303816000865af19150501580610a09575030600160a060020a0316636fde82026040518163ffffffff1660e060020a028152600401602060405180830381600087803b1580156109d157600080fd5b505af11580156109e5573d6000803e3d6000fd5b505050506040513d60208110156109fb57600080fd5b5051600160a060020a031633145b80610a1357503330145b1515610a1e57600080fd5b610a26610b3d565b15610a3057600080fd5b610a39866117e7565b1515610a4457600080fd5b610a4e88886117ef565b7fab54f3fbbe62c59b7876a9bf9bd5e0c22dbae93f4d8ee0438f7ce62b198eb0e0805473ffffffffffffffffffffffffffffffffffffffff1916600160a060020a03881617905560006020819052437fe66bef0282a446f9848e2903380099bb6e431483ee78778868f33b4a154c818b557f2670ecc91ec356e32067fd27b36614132d727b84a1e03e08f412a4f2cf07597490527f3d7fe2ee9790702383ef0118b516833ef2542132d3ca4ac6c77f62f1230fa610859055610b0f8461193f565b610b1883611955565b610b21826119e8565b610b29611abf565b610b31610b3d565b98975050505050505050565b7f0a6f646cd611241d8073675e00d1a1ff700fbf1b53fcf473de56d1e6e4b714ba60005260046020527f078d888f9b66f3f8bfa10909e31f1e16240db73449f0500afdbbe3a70da457cc5460ff1690565b7f916daedf6915000ff68ced2f0b6773fe6f2582237f92c3c95bb4d7940723007160009081526020527fd2ea0feb732edb0ffe32efd33a6b9d24d46b16eb34a4d07ce256537b6f131e425490565b6000806000806000610bec6129ac565b6060610c658b8b8080601f0160208091040260200160405190810160405280939291908181526020018383808284378201915050505050508a8a8080601f01602080910402602001604051908101604052809392919081815260200183838082843750610c5e945061108e9350505050565b6001611b16565b610c9e8b8b8080601f01602080910402602001604051908101604052809392919081815260200183838082843750611da0945050505050565b959c50939a509198509650945092509050610cb887611e91565b1515610cc357600080fd5b6020820151610cd190611ed7565b1515610cdc57600080fd5b610ce587610800565b15610cef57600080fd5b610cfa876001611ee9565b610d1686868963ffffffff881687876000602002015187611fbb565b5050505050505050505050565b8051600090610d3990601063ffffffff61201216565b92915050565b6000600260008360405160200180807f6661696c65644d6573736167655265636569766572000000000000000000000081525060150182600019166000191681526020019150506040516020818303038152906040526040518082805190602001908083835b60208310610dc45780518252601f199092019160209182019101610da5565b51815160209384036101000a6000190180199092169116179052604080519290940182900390912086528501959095529290920160002054600160a060020a031695945050505050565b7f2544fbb90000000000000000000000000000000000000000000000000000000090565b610e3a611037565b600160a060020a03163314610e4e57600080fd5b610e5882826117ef565b5050565b6000600260008360405160200180807f6661696c65644d65737361676553656e64657200000000000000000000000000815250601301826000191660001916815260200191505060405160208183030381529060405260405180828051906020019080838360208310610dc45780518252601f199092019160209182019101610da5565b7fffa3a5a0e192028fc343362a39c5688e5a60819a4dc5ab3ee70c25bc25b78dd660005260046020527f265a43ea29ede07170a30cb6d77d0ab5810eee752b72432f7be348bde74aa08f5460ff1690565b7fe34bb2103dc34f2c144cc216c132d6ffb55dac57575c22e089161bbe650833045490565b610f5e611037565b600160a060020a03163314610f7257600080fd5b7f2670ecc91ec356e32067fd27b36614132d727b84a1e03e08f412a4f2cf07597460009081526020527f3d7fe2ee9790702383ef0118b516833ef2542132d3ca4ac6c77f62f1230fa61055565b6000610fc961108e565b600160a060020a0316638d0680436040518163ffffffff1660e060020a028152600401602060405180830381600087803b15801561100657600080fd5b505af115801561101a573d6000803e3d6000fd5b505050506040513d602081101561103057600080fd5b5051905090565b7f02016836a56b71f0d02689e69e326f4f4c1b9057164ef592671cf0d37c8040c060005260026020527fb7802e97e87ef2842a6cce7da7ffaeaedaa2f61a6a7870b23d9d01fc9b73712e54600160a060020a031690565b7f5a74bb7e202fb8e4bf311841c7d64ec19df195fee77d7e7ae749b27921b6ddfe60005260026020527fab54f3fbbe62c59b7876a9bf9bd5e0c22dbae93f4d8ee0438f7ce62b198eb0e054600160a060020a031690565b7fb120ceec05576ad0c710bc6e85f1768535e27554458f05dcbb5c65b8c7a749b060009081526020527fe66bef0282a446f9848e2903380099bb6e431483ee78778868f33b4a154c818b5490565b600560066000909192565b7f7f0fcd9e49860f055dd0c1682d635d309ecb5e3011654c716d9eb59a7ddec7d25490565b61116b611037565b600160a060020a0316331461117f57600080fd5b61118881611955565b50565b7fbbd454018e72a3f6c02bbd785bacc49e46292744f3f6761276723823aa33232060009081526020527f242329173dfc316001df0a0c3d5a8f58a7ffb1a8b7d99c268303b9a741bacdf95490565b6111e1611037565b600160a060020a031633146111f557600080fd5b6111888161193f565b611206611037565b600160a060020a0316331461121a57600080fd5b7fffa3a5a0e192028fc343362a39c5688e5a60819a4dc5ab3ee70c25bc25b78dd660005260046020527f265a43ea29ede07170a30cb6d77d0ab5810eee752b72432f7be348bde74aa08f805460ff1916911515919091179055565b6000600460008360405160200180807f6d65737361676543616c6c5374617475730000000000000000000000000000008152506011018260001916600019168152602001915050604051602081830303815290604052604051808280519060200190808383602083106108855780518252601f199092019160209182019101610866565b7f7b58b2a669d8e0992eae9eaef641092c0f686fd31070e7236865557fa1571b5b5490565b7f1e8ecaafaddea96ed9ac6d2642dcdfe1bebe58a930b1085842d8fc122b371ee560009081526020527fd5c78dd9468716ca9bb96be25d56436811b20aab3523a9904b12deef1cab239d5490565b600061137b84848460006106bd565b949350505050565b60008060008360405160200180807f6661696c65644d6573736167654461746148617368000000000000000000000081525060150182600019166000191681526020019150506040516020818303038152906040526040518082805190602001908083835b602083106114075780518252601f1990920191602091820191016113e8565b51815160209384036101000a600019018019909216911617905260408051929094018290039091208652850195909552929092016000205495945050505050565b7f2670ecc91ec356e32067fd27b36614132d727b84a1e03e08f412a4f2cf07597460009081526020527f3d7fe2ee9790702383ef0118b516833ef2542132d3ca4ac6c77f62f1230fa6105490565b61149e611037565b600160a060020a031633146114b257600080fd5b611188816119e8565b7f55b3774520b5993024893d303890baa4e84b1244a43c60034d1ced2d3cf2b04b60009081526020527ff7d5eefab3776d7f0450bd0193564bcb4f832ce313ff2836c450fc63a4b944195490565b6060600080600080600080600061151e61066f565b965061152861203b565b955061153261118b565b945061153c612089565b93507e0500000000000000000000000000000000000000000000000000000000000092506115686116a5565b6040805160208082018b90526c0100000000000000000000000030028284015282516034818403018152605490920192839052815167ffffffffffffffff949094169550909282918401908083835b602083106115d65780518252601f1990920191602091820191016115b7565b6001836020036101000a03801982511681845116808217855250505050505090500191505060405180910390207bffffffffffffffffffffffffffffffffffffffff00000000000000006001021690508386604f01016040519080825280601f01601f191660200182016040528015611659578160200160208202803883390190505b50975087518801858152878582035289604f8a015284604e8a015286604d8a01528a604c8a01528b60488a01523360348a0152828217841760208a015250505050505050509392505050565b7f7ab1577440dd7bedf920cb6de2f9fc6bf7ba98c78c85a3fa1f8311aac95e175960009081526020527fa9b0f75b23e377b9b22d27feaca5d8a12329c0049ebce1dc695b905f3aa4cd005490565b7f7ab1577440dd7bedf920cb6de2f9fc6bf7ba98c78c85a3fa1f8311aac95e1759600090815260205267ffffffffffffffff167fa9b0f75b23e377b9b22d27feaca5d8a12329c0049ebce1dc695b905f3aa4cd0055565b604080516020808252835181830152835185937f482515ce3d9494a37ce83f18b72b363449458435fafdd7a53ddea7460fe01b589386939092839283019185019080838360005b838110156117a9578181015183820152602001611791565b50505050905090810190601f1680156117d65780820380516001836020036101000a031916815260200191505b509250505060405180910390a25050565b6000903b1190565b6000806000806000861180156118055750600085115b151561181057600080fd5b8585141561181d57600080fd5b506000925082915060ff905060015b831580611837575082155b1561187f578315801561184b575085828716145b15611854578093505b82158015611863575084828616145b1561186c578092505b6101009190910260ff179060010161182c565b5050600060208190527ff6c66672b1a9fe5622677597b0da8fd180a2c85696efbcf7fe4b1e0f4f0f6108949094557f2f30286a16f86ee067618e1a246990e40c07b7749418a6dd3133f9cfb7e814cc919091557f242329173dfc316001df0a0c3d5a8f58a7ffb1a8b7d99c268303b9a741bacdf9919091557ffb792ae4ad11102b93f26a51b3749c2b3667f8b561566a4806d49896928115949091527f7b62b32ff48350e85ce95b571fde6f8b1096bc44a26db769ad6d0b3a26bf1c6d55565b6000811161194c57600080fd5b611188816120d7565b6000811161196257600080fd5b7f916daedf6915000ff68ced2f0b6773fe6f2582237f92c3c95bb4d79407230071600090815260209081527fd2ea0feb732edb0ffe32efd33a6b9d24d46b16eb34a4d07ce256537b6f131e428290556040805183815290517f4fb76205cd57c896b21511d2114137d8e901b4ccd659e1a0f97d6306795264fb929181900390910190a150565b600160a060020a03811615156119fd57600080fd5b7f8be0079c531659141344cd1fd0a4f28419497f9722a3daafe3b4186f6b6457e0611a26611037565b60408051600160a060020a03928316815291841660208301528051918290030190a17f02016836a56b71f0d02689e69e326f4f4c1b9057164ef592671cf0d37c8040c060005260026020527fb7802e97e87ef2842a6cce7da7ffaeaedaa2f61a6a7870b23d9d01fc9b73712e805473ffffffffffffffffffffffffffffffffffffffff1916600160a060020a0392909216919091179055565b7f0a6f646cd611241d8073675e00d1a1ff700fbf1b53fcf473de56d1e6e4b714ba60005260046020527f078d888f9b66f3f8bfa10909e31f1e16240db73449f0500afdbbe3a70da457cc805460ff19166001179055565b6000806000606060008060008060008060008b80611b385750611b388f61215d565b1515611b4357600080fd5b8c600160a060020a0316638d0680436040518163ffffffff1660e060020a028152600401602060405180830381600087803b158015611b8157600080fd5b505af1158015611b95573d6000803e3d6000fd5b505050506040513d6020811015611bab57600080fd5b505160018f0151909b5060ff1699508a8a1015611bc757600080fd5b611bd18f8d612171565b98508a604051908082528060200260200182016040528015611bfd578160200160208202803883390190505b509750600096505b8a871015611d8f57866020028a6021010192508960200283019150866002018e01519550828e01519450818e01519350600189878787604051600081526020016040526040518085600019166000191681526020018460ff1660ff1681526020018360001916600019168152602001826000191660001916815260200194505050505060206040516020810390808403906000865af1158015611cac573d6000803e3d6000fd5b5050506020604051035190508c600160a060020a031663facd743b826040518263ffffffff1660e060020a0281526004018082600160a060020a0316600160a060020a03168152602001915050602060405180830381600087803b158015611d1357600080fd5b505af1158015611d27573d6000803e3d6000fd5b505050506040513d6020811015611d3d57600080fd5b50511515611d4a57600080fd5b611d54888261238b565b15611d5e57600080fd5b808888815181101515611d6d57fe5b600160a060020a03909216602092830290910190910152600190960195611c05565b505050505050505050505050505050565b6000806000806000611db06129ac565b6060600080604f915060208a01519850600160a060020a0360348b015116975060548a01518060601c975063ffffffff8160401c16965080601a1a95506000607f87161115611dfe57600080fd5b8060181a6001808260031b1b03818501945080858e01511687528260191a91506001808360031b1b039050818501945080858e0151166020880152848d51039350505050806040519080825280601f01601f191660200182016040528015611e70578160200160208202803883390190505b50925060248201915080826004350160208501375050919395979092949650565b7bffffffffffffffffffffffffffffffffffffffffffffffffffffffff1981167e0500000000000000000000000000000000000000000000000000000000000014919050565b6000611ee161066f565b909114919050565b80600460008460405160200180807f72656c617965644d657373616765730000000000000000000000000000000000815250600f0182600019166000191681526020019150506040516020818303038152906040526040518082805190602001908083835b60208310611f6d5780518252601f199092019160209182019101611f4e565b51815160209384036101000a60001901801990921691161790526040805192909401829003909120865285019590955292909201600020805460ff1916941515949094179093555050505050565b6000611fcb888884888a886123e6565b9050611fd786826124c3565b801515611ffc57611fe88683612546565b611ff28688612655565b611ffc8689612743565b612008888888846127c6565b5050505050505050565b600082151561202357506000610d39565b5081810281838281151561203357fe5b0414610d3957fe5b7fe504ae1fd6471eea80f18b8532a61a9bb91fba4f5b837f80a1cfb6752350af4460009081526020527f2f30286a16f86ee067618e1a246990e40c07b7749418a6dd3133f9cfb7e814cc5490565b7ffb792ae4ad11102b93f26a51b3749c2b3667f8b561566a4806d498969281159460009081526020527f7b62b32ff48350e85ce95b571fde6f8b1096bc44a26db769ad6d0b3a26bf1c6d5490565b7f55b3774520b5993024893d303890baa4e84b1244a43c60034d1ced2d3cf2b04b600090815260209081527ff7d5eefab3776d7f0450bd0193564bcb4f832ce313ff2836c450fc63a4b944198290556040805183815290517f52264b89e0fceafb26e79fd49ef8a366eb6297483bf4035b027f0c99a7ad512e929181900390910190a150565b6000612167612814565b8251149050919050565b60408051808201909152601a81527f19457468657265756d205369676e6564204d6573736167653a0a00000000000060208201526000906060831561231757816121bb8651612819565b866040516020018084805190602001908083835b602083106121ee5780518252601f1990920191602091820191016121cf565b51815160209384036101000a600019018019909216911617905286519190930192860191508083835b602083106122365780518252601f199092019160209182019101612217565b51815160209384036101000a600019018019909216911617905285519190930192850191508083835b6020831061227e5780518252601f19909201916020918201910161225f565b6001836020036101000a03801982511681845116808217855250505050505090500193505050506040516020818303038152906040526040518082805190602001908083835b602083106122e35780518252601f1990920191602091820191016122c4565b6001836020036101000a03801982511681845116808217855250505050505090500191505060405180910390209250612383565b6040805190810160405280600381526020017f31303400000000000000000000000000000000000000000000000000000000008152509050818186604051602001808480519060200190808383602083106121ee5780518252601f1990920191602091820191016121cf565b505092915050565b6000805b83518110156123da5782600160a060020a031684828151811015156123b057fe5b90602001906020020151600160a060020a031614156123d257600191506123df565b60010161238f565b600091505b5092915050565b6000806123f288612940565b6123fb84612964565b61240483612988565b8460405a603f0281151561241457fe5b041161241f57600080fd5b86600160a060020a0316858760405180828051906020019080838360005b8381101561245557818101518382015260200161243d565b50505050905090810190601f1680156124825780820380516001836020036101000a031916815260200191505b5091505060006040518083038160008787f19250505090506124a46000612940565b6124ae6000612964565b6124b86000612988565b979650505050505050565b80600460008460405160200180807f6d65737361676543616c6c537461747573000000000000000000000000000000815250601101826000191660001916815260200191505060405160208183030381529060405260405180828051906020019080838360208310611f6d5780518252601f199092019160209182019101611f4e565b806040518082805190602001908083835b602083106125765780518252601f199092019160209182019101612557565b51815160209384036101000a6000190180199092169116179052604080519290940182900382207f6661696c65644d657373616765446174614861736800000000000000000000008383015260358084018a905285518085039091018152605590930194859052825190965060009550859492935082918401908083835b602083106126135780518252601f1990920191602091820191016125f4565b51815160209384036101000a60001901801990921691161790526040805192909401829003909120865285019590955292909201600020939093555050505050565b80600260008460405160200180807f6661696c65644d6573736167655265636569766572000000000000000000000081525060150182600019166000191681526020019150506040516020818303038152906040526040518082805190602001908083835b602083106126d95780518252601f1990920191602091820191016126ba565b51815160209384036101000a60001901801990921691161790526040805192909401829003909120865285019590955292909201600020805473ffffffffffffffffffffffffffffffffffffffff1916600160a060020a0395909516949094179093555050505050565b80600260008460405160200180807f6661696c65644d65737361676553656e646572000000000000000000000000008152506013018260001916600019168152602001915050604051602081830303815290604052604051808280519060200190808383602083106126d95780518252601f1990920191602091820191016126ba565b60408051821515815290518391600160a060020a0380871692908816917f27333edb8bdcd40a0ae944fb121b5e2d62ea782683946654a0f5e607a908d578919081900360200190a450505050565b606890565b606060008082818515156128625760408051808201909152600181527f300000000000000000000000000000000000000000000000000000000000000060208201529450612937565b8593505b831561287d57600190920191600a84049350612866565b826040519080825280601f01601f1916602001820160405280156128ab578160200160208202803883390190505b5091505060001982015b85156129335781516000198201917f01000000000000000000000000000000000000000000000000000000000000006030600a8a0601029184919081106128f857fe5b9060200101907effffffffffffffffffffffffffffffffffffffffffffffffffffffffffffff1916908160001a905350600a860495506128b5565b8194505b50505050919050565b7f7b58b2a669d8e0992eae9eaef641092c0f686fd31070e7236865557fa1571b5b55565b7fe34bb2103dc34f2c144cc216c132d6ffb55dac57575c22e089161bbe6508330455565b7f7f0fcd9e49860f055dd0c1682d635d309ecb5e3011654c716d9eb59a7ddec7d255565b604080518082018252906002908290803883395091929150505600a165627a7a723058207f1d3fc9c458576237f9b18f38628d6056c173720c8b54ad6035fd2c79717d800029",
  "source": "pragma solidity 0.4.24;\n\nimport \"./BasicForeignAMB.sol\";\n\ncontract ForeignAMB is BasicForeignAMB {\n    event UserRequestForAffirmation(bytes32 indexed messageId, bytes encodedData);\n    event RelayedMessage(address indexed sender, address indexed executor, bytes32 indexed messageId, bool status);\n\n    function emitEventOnMessageRequest(bytes32 messageId, bytes encodedData) internal {\n        emit UserRequestForAffirmation(messageId, encodedData);\n    }\n\n    function emitEventOnMessageProcessed(address sender, address executor, bytes32 messageId, bool status) internal {\n        emit RelayedMessage(sender, executor, messageId, status);\n    }\n}\n",
  "sourcePath": "/contracts/contracts/upgradeable_contracts/arbitrary_message/ForeignAMB.sol",
  "compiler": {
    "name": "solc",
    "version": "0.4.24+commit.e67f0147.Emscripten.clang"
  },
  "schemaVersion": "3.0.15",
  "updatedAt": "2021-02-02T18:27:44.856Z",
  "devdoc": {
    "methods": {
      "_sendMessage(address,bytes,uint256,uint256)": {
        "details": "Initiates sending of an AMB message to the opposite network",
        "params": {
          "_contract": "executor address on the other side",
          "_data": "calldata passed to the executor on the other side",
          "_dataType": "AMB message dataType to be included as a part of the header",
          "_gas": "gas limit used on the other network for executing a message"
        }
      },
      "allowReentrantRequests()": {
        "return": "true, if reentrant requests are allowed."
      },
      "decimalShift()": {
        "details": "Returns the value of foreign-to-home decimal shift.",
        "return": "decimal shift."
      },
      "destinationChainId()": {
        "return": "chain id for the destination network"
      },
      "executeSignatures(bytes,bytes)": {
        "details": "Validates provided signatures and relays a given message",
        "params": {
          "_data": "bytes to be relayed",
          "_signatures": "bytes blob with signatures to be validated"
        }
      },
      "failedMessageDataHash(bytes32)": {
        "details": "Returns a data hash of the failed message that came from the other side. NOTE: dataHash was used previously to identify outgoing message before AMB message id was introduced. It is kept for backwards compatibility with old mediators contracts.",
        "params": {
          "_messageId": "id of the message from the other side that triggered a call."
        },
        "return": "keccak256 hash of message data."
      },
      "failedMessageReceiver(bytes32)": {
        "details": "Returns a receiver address of the failed message that came from the other side.",
        "params": {
          "_messageId": "id of the message from the other side that triggered a call."
        },
        "return": "receiver address."
      },
      "failedMessageSender(bytes32)": {
        "details": "Returns a sender address of the failed message that came from the other side.",
        "params": {
          "_messageId": "id of the message from the other side that triggered a call."
        },
        "return": "sender address on the other side."
      },
      "getBridgeInterfacesVersion()": {
        "return": "(major, minor, patch) version triple"
      },
      "getMinimumGasUsage(bytes)": {
        "details": "Returns a lower limit on gas limit for the particular message data",
        "params": {
          "_data": "calldata passed to the executor on the other side"
        }
      },
      "initialize(uint256,uint256,address,uint256,uint256,uint256,address)": {
        "params": {
          "_destinationChainId": "chain id of a network where all outgoing messages are directed",
          "_gasPrice": "default gas price used by oracles for sending transactions in this network",
          "_maxGasPerTx": "maximum amount of gas per one message execution",
          "_owner": "address of new bridge owner",
          "_requiredBlockConfirmations": "number of block confirmations oracle will wait before processing passed messages",
          "_sourceChainId": "chain id of a network where this contract is deployed",
          "_validatorContract": "address of the validators contract"
        }
      },
      "messageCallStatus(bytes32)": {
        "details": "Returns a status of the message that came from the other side.",
        "params": {
          "_messageId": "id of the message from the other side that triggered a call."
        },
        "return": "true if call executed successfully."
      },
      "messageId()": {
        "details": "Returns an id of the currently processed message.",
        "return": "id of the message that originated on the other side."
      },
      "messageSender()": {
        "details": "Returns an address of the sender on the other side for the currently processed message. Can be used by executors for getting other side caller address.",
        "return": "address of the sender on the other side."
      },
      "messageSourceChainId()": {
        "details": "Returns an originating chain id of the currently processed message.",
        "return": "source chain id of the message that originated on the other side."
      },
      "owner()": {
        "details": "Tells the address of the owner",
        "return": "the address of the owner"
      },
      "requireToPassMessage(address,bytes,uint256)": {
        "details": "Requests message relay to the opposite network",
        "params": {
          "_contract": "executor address on the other side",
          "_data": "calldata passed to the executor on the other side",
          "_gas": "gas limit used on the other network for executing a message"
        }
      },
      "setAllowReentrantRequests(bool)": {
        "params": {
          "_enable": "true, if reentrant requests are allowed."
        }
      },
      "setChainIds(uint256,uint256)": {
        "params": {
          "_destinationChainId": "chain id for opposite network",
          "_sourceChainId": "chain id for current network"
        }
      },
      "setGasPrice(uint256)": {
        "details": "Public setter for fallback gas price value. Only bridge owner can call this method.",
        "params": {
          "_gasPrice": "new value for the gas price."
        }
      },
      "sourceChainId()": {
        "return": "chain id for the current network"
      },
      "transactionHash()": {
        "details": "Returns an id of the currently processed message. NOTE: transactionHash was used previously to identify incoming message before AMB message id was introduced. It is kept for backwards compatibility with old mediators contracts, although it doesn't return txHash anymore.",
        "return": "id of the message that originated on the other side."
      },
      "transferOwnership(address)": {
        "details": "Allows the current owner to transfer control of the contract to a newOwner.",
        "params": {
          "newOwner": "the address to transfer ownership to."
        }
      }
    }
  },
  "userdoc": {
    "methods": {
      "allowReentrantRequests()": {
        "notice": "Tells if passing reentrant requests is allowed."
      },
      "destinationChainId()": {
        "notice": "Internal function for retrieving chain id for the destination network"
      },
      "getBridgeInterfacesVersion()": {
        "notice": "Returns currently used bridge version"
      },
      "initialize(uint256,uint256,address,uint256,uint256,uint256,address)": {
        "notice": "Initializes AMB contract"
      },
      "setAllowReentrantRequests(bool)": {
        "notice": "Sets the flag to allow passing new AMB requests in the opposite direction, while other AMB message is being processed. Only owner can call this method."
      },
      "setChainIds(uint256,uint256)": {
        "notice": "Updates chain ids of used networks"
      },
      "sourceChainId()": {
        "notice": "Internal function for retrieving chain id for the source network"
      }
    }
  }
}